S01700006275696C642F697269732F6D61696E2E7372656343
S11300000C9479000C9498000C9498000C9498002B
S11300100C9498000C9498000C9498000C949800FC
S11300200C9498000C9498000C9498000C949800EC
S11300300C9498000C94E9110C9498000C942D12D3
S11300400C9440130C94F1120C942A130C94351351
S11300500C9479130C9498000C9498000C949800C8
S11300600C9455120C9498000C9498000C949800DD
S11300700C9498000C9498000C9498000C9498009C
S11300800C9498000C9498000C9498000C9498008C
S11300900C9498000C9498000C9498000C9498007C
S11300A00C9498000C9498000C9498000C9498006C
S11300B00C9498000C9498000C9498000C9498005C
S11300C00C9498000C9498000C949800F50C0F0D67
S11300D03E0D8D0D960F0A1052101011B510C91057
S11300E016113B1148115D1181118A1100020E068F
S11300F00C0411241FBECFEFD1E2DEBFCDBF12E04E
S1130100A0E0B2E0ECE8FBE200E00BBF02C0079025
S11301100D92A831B107D9F724E0A8E1B2E001C0FB
S11301201D92AA36B207E1F70E94D5130C94C415A8
S11301300C9400002F980895289A08959FB7F89476
S113014080917C038F5F80937C039FBF08950DB4DF
S113015007FEFDCF8EB50895982F0DB407FEFDCF91
S11301608EB59EBD0895289808958627082E8295F9
S1130170807F8025092E982F82958F70082686957A
S113018098278927880F880F880F802508958091E4
S113019088038F3F71F0E82FF0E0E559FD4F90811F
S11301A0909388039F3F11F490935C049FEF908396
S11301B008958FEF08958091B0008093B0008091EE
S11301C0B60081FDFCCF08952FB7F89480911302F7
S11301D0909114022FBF08959FB7F894E82FF0E090
S11301E0E559FD4F20812F3FC9F421E030E0E09133
S11301F05C04E81711F020E030E0232B79F420911F
S113020088032F3F19F48093880304C0F0E0E55974
S1130210FD4F808380935C0480E001C085E09FBF34
S1130220089582E00C94EC000F931F932FB7F89479
S11302308091550390915603A0915703B0915803B0
S11302400091840010918500B09B07C00196A11D08
S1130250B11D00918400109185002FBF7727662778
S113026020E030E0602B712B822B932B1F910F9198
S113027008954091840050918500EFB7F89420913F
S11302808400309185002D5F3F4FB901641B750BCD
S11302906817790718F49C01240F351F21153105BF
S11302A011F421E030E0215031093093890020938A
S11302B0880082E086BB80916F00826080936F002B
S11302C0EFBF08950F931F93CF93DF938C012FB744
S11302D0F894C0917A03D0917B03CE018F5E9E4F38
S11302E090937B0380937A032FBF84E00E94EC00F9
S11302F0CE01B8010E9463158A5D9E4FDF91CF91B4
S11303001F910F910895982FE1E9F2E080E0DF0159
S113031011972C91222319F02081291721F08F5F46
S113032039968A30A1F70895E0E9F2E080E09081FF
S1130330992321F08F5F39968A30C9F708952FB732
S1130340F8943091B2008091670290916802A09174
S11303506902B0916A02B99B0FC04091B300309119
S1130360B200BC01CD016F5F7F4F8F4F9F4F640F71
S1130370711D811D911D02C0BC01CD01630F711D52
S1130380811D911D2FBF0895CF92DF92EF92FF92AE
S11303900F931F93CF93CFB7F8942091B30090910C
S11303A0B20087B3291711F081FF02C0CFBF78C014
S11303B080918A02811102C086EE3AC00E949F0198
S11303C000915B0210915C0220915D0230915E020B
S11303D0C0908D03D0908E03E0908F03F090900333
S11303E0601B710B820B930B6C157D058E059F05AD
S11303F028F010928A0286EE31E01BC0D701C601B4
S1130400800F911FA21FB31F409167025091680291
S11304106091690270916A02841B950BA60BB70B5D
S1130420873E9105A105B10538F6823008F482E0D3
S113043030E02FEF280F9091B60093FDFCCF909100
S1130440B200291301C0282F80916702909168029D
S1130450A0916902B0916A02AC01BD014F5F5F4F88
S11304606F4F7F4F420F511D611D711D4817590772
S11304706A077B0710F4282F20958091B60083FD2E
S1130480FCCF2093B300CFBF332351F085E0CF914D
S11304901F910F91FF90EF90DF90CF900C94EC00A0
S11304A0CF911F910F91FF90EF90DF90CF9008951F
S11304B0882319F0813039F008956352724041F471
S11304C010921F0208956252744011F410921E0299
S11304D0089510921A0210921B0280911902882327
S11304E021F0813051F0129808C09FB7F89482B17E
S11304F021E0822782B99FBF08950895CF93CFB793
S1130500F8948091200281110BC081E08093200235
S113051010920C0289E00E94EC00CFBF80E01FC063
S11305208091EC028F3FC9F481E090E0E0910D02EC
S1130530EE2311F080E090E0892B79F480910E0293
S11305408F3F19F410920E0204C0F0E0E451FD4F05
S1130550108210920D0280E001C085E0CFBFCF91E0
S11305600895CF93CFB7F89480912102823029F572
S113057080910F02811121C0809111028F3FB1F04F
S1130580E82FF0E0EC57FD4F9081909311029F3FCC
S113059011F4909310029FEF908380930F0281E0F7
S11305A08093210280E00E94EC0004C080930F023B
S11305B010922102CFBF80E002C0CFBF81E0CF9173
S11305C00895CF93CFB7F89480912002823041F5FB
S11305D080910C02811124C080910E028F3FB1F0F2
S11305E0E82FF0E0E451FD4F908190930E029F3F7D
S11305F011F490930D029FEF908380930C0281E09D
S11306008093200289E00E94EC0004C080930C02D5
S1130610109220028CB58F7B8CBDCFBF80E002C0CE
S1130620CFBF81E0CF910895FF920F931F93CF9393
S1130630DF93EC0188818A3709F463C08B3709F4AE
S113064087C0893709F0EDC09D81913009F4E9C074
S11306508E81813009F4E5C02B8130E0322F2227CE
S11306604C81242B2C33310509F4DBC0FA806F2D27
S113067070E040911502509116026417750749F411
S113068090930A0280930902309308022093070290
S1130690C8C08F2D0E9483018A3028F00E949401E3
S11306A08A3008F0BEC099E0899F80011124005768
S11306B01D4FF801F18281E080838D8182838E81D8
S11306C083830E949F012B8130E0322F22274C81AB
S11306D0242BE8EEF3E02E9FA0012F9F500D3E9FA8
S11306E0500D1124640F751F811D911DF801648341
S11306F075838683978380911C028F5F80931C028D
S113070090C08B8190E0982F88272C81822BCC97E6
S113071009F487C00E949F012B8130E0322F2227E9
S11307204C81242BE8EEF3E02E9FA0012F9F500D67
S11307303E9F500D1124640F751F811D911D609300
S1130740030270930402809305029093060269C029
S11307508A81482F50E020911502309116024217E9
S1130760530709F45EC00E9483018A3028F00E9476
S113077094018A3008F055C09D81913009F445C038
S11307809E81913009F441C02B8130E0322F222721
S11307909C81292B2C333105C1F1082F10E00E94D4
S11307A09F0129E0209FF001219FF00D1124E057C3
S11307B0FD4F2B8130E0322F22274C81242BA8EED1
S11307C0B3E02A9FA0012B9F500D3A9F500D112496
S11307D0640F751F811D911D6483758386839783C0
S11307E08D8182838E8183838F81882319F081E0B8
S11307F0808701C0108689E0809FF001819FF00D01
S11308001124E057FD4F81E0808380911B028823EF
S113081041F08FE0DF91CF911F910F91FF900C94E5
S1130820EC00DF91CF911F910F91FF900895CF932A
S1130830DF931F92CDB7DEB789830E94B30089810D
S113084080688EBD80E00E94AC000E94A70089836E
S11308500E949C0089810F90DF91CF9108951F938E
S1130860CF93DF931F92CDB7DEB7182F69830E9411
S1130870B300912F906C9EBD89810E94AC000E94B0
S1130880A7000F90DF91CF911F910C949C008CB521
S11308908F7B8CBD229A2398219A209A8CB58061F3
S11308A08CBD8CB58F778CBD8CB5877F8CBD8CB59A
S11308B08B7F8CBD8CB580648CBD8DB581608DBD06
S11308C08CB58C7F8CBD0895CF938FB7F89490919D
S11308D00C02911106C090912002923011F48FBF46
S11308E00FC08FBFCFB7F8948091200281110AC046
S11308F082E08093200210920C020E944704CFBF32
S113090081E004C0CFBF0E947E0280E0CF910895B1
S1130910CF93DF93FC01828190E0982F8827218177
S1130920822B85FF14C087749C7C8134984879F4A9
S1130930C781D0E0DC2FCC278681C82B0E94E4003D
S113094021E0C817D90709F020E0822F01C080E018
S1130950DF91CF9108953F924F925F926F927F9271
S11309608F929F92AF92BF92CF92DF92EF92FF92BB
S11309700F931F93CF93DF9300D000D0CDB7DEB792
S11309808C0180915202811140C0809121048530F4
S1130990E1F580918303811138C00E9464048823A7
S11309A0A1F1F80184A582FF03C066A56F7001C0A0
S11309B060E080911D03681731F060931D03606847
S11309C085E00E942F04F801828190E0982F882707
S11309D02181822B87749C7C81349848C1F486E001
S11309E00E9417048F7190E040918F02209185023C
S11309F030E0240F311D63E0359527956A95E1F7C2
S1130A002817390724F40E94E10285E0A6C069E0B2
S1130A1082E00E942F040E9414012B013C01780102
S1130A202FEFE21AF20AF801B08084A55EEF952E4A
S1130A309B0C84FF0AC04BEFA42EAB0C98012E191B
S1130A403F09A20E392C3A1802C0A92C312C81E09E
S1130A500E9417048F71893029F066E082E00E94B9
S1130A602F04D1CF8FB7F8942F9AC0908400D090E0
S1130A7085008FBF0E949A000E94B30080E68EBD5D
S1130A808B2D0E94AC004701BA2CBE0CF40181915D
S1130A904F010E94AC00B810F9CFAA94B12CB70151
S1130AA06A0D7B1DA5014F5F5F4F4E0D5F1D9601C3
S1130AB02E553F4F241935094901AA2497FCA094C7
S1130AC0BA2C840C951CA61CB71C332079F1FB01AD
S1130AD08181C280D12CE12CF12C7601DD24CC243F
S1130AE0F82A8481C82A8381D82AD701C6018819A3
S1130AF09909AA09BB0984839383A283B183712CC6
S1130B00FA01E70DF11D808149835A836B837C834D
S1130B100E94AC00739449815A816B817C8173106B
S1130B20EFCFFB01C482D382E282F1820E94A7004C
S1130B300E949C0066E082E00E942F04F80184A5D4
S1130B40826084A780A691A6A2A6B3A686E080931D
S1130B50210484E08093520280E00F900F900F9064
S1130B600F90DF91CF911F910F91FF90EF90DF9045
S1130B70CF90BF90AF909F908F907F906F905F9039
S1130B804F903F9008952F923F924F925F926F92B1
S1130B907F928F929F92AF92BF92CF92DF92EF9209
S1130BA0FF920F931F93CF93DF9300D01F92CDB783
S1130BB0DEB744E0F42E50E8952E65E0E62E73E0AF
S1130BC0D72EE9E08E2EF2E0CF2EA8E0BA2EB0E2C6
S1130BD0AB2E80917603823009F097C01092760391
S1130BE02091ED02223009F473C0233009F47BC054
S1130BF0213009F08AC08091840090918500609032
S1130C004F0370905003681A790A809189028038E2
S1130C1051F41092890280918802823009F075C0E3
S1130C20209388025DC087FF03C016141704FCF0EC
S1130C30009186021091870280916602811117C08B
S1130C40C8010E94AB04282F811112C0D8019C96C0
S1130C508C919C978E7F9C968C9381E08093660206
S1130C6010935E0400935D04D09289024EC025E087
S1130C7080918902982F9F77913081F480788260E7
S1130C808093890280E198E00E94620121E0209330
S1130C90ED02209376030E94390137C087FF10C00C
S1130CA0161417046CF49092890281E08093ED028B
S1130CB080937603C30129830E943901298102C0EC
S1130CC0109289022093910381E08093880208C0E6
S1130CD0109266021092890210929103F092880297
S1130CE00E94110112C080912104823019F42093D2
S1130CF0210409C080915202863029F410925202D4
S1130D0081E00E9417040E94910C80918303882340
S1130D1009F4C7C080912104813009F4C2C00E9443
S1130D206404882309F4BDC08FB7F8940091EA02E3
S1130D301091EB028FBF109283038FE00E9417047F
S1130D40782E809152028B7F833021F4E09221042B
S1130D50B092520272FE48C080915202863011F461
S1130D60109252028091520281113EC0B4E07B1273
S1130D7032C086E00E9417048F7190918502292F5A
S1130D8026952695921B980F90938502E0915F0219
S1130D90F091600294A59B7F986094A786A70E9417
S1130DA01401A80147505109461B570B1A0144244A
S1130DB037FC4094542CE0915F02F091600224A52A
S1130DC0226024A7260E371E481E591E20A631A6CF
S1130DD042A653A607C0E0915F02F091600284A589
S1130DE0857F84A7E092520273FE5BC08091520219
S1130DF0843009F045C0E09221041092520280919F
S1130E006602833019F4109266024BC0E0915D04CF
S1130E10F0915E04828190E0982F88272181822BB3
S1130E2085FF23C087749C7C81349848F1F48781C2
S1130E3090E0982F88272681822B21E030E00196CC
S1130E4011F420E030E0232B81F0809176038111AE
S1130E500CC0C092ED0281E08093760389E993E0AF
S1130E600E943901C09266021CC010926602109260
S1130E70890210929103F09288020E94110111C01C
S1130E80853079F486E00E94170490918F02292F0F
S1130E9026952695921B8F71980F90938F028092BE
S1130EA0520280915202882309F44FC2893009F01A
S1130EB0C0C10E94B300AEBC0DB407FEFDCF8EB519
S1130EC01EBC0DB407FEFDCF8EB59DEF980F973273
S1130ED008F073C01EBCE0915F02F09160023F0114
S1130EE05FEF651A750A80839EEF492E480E86E0EF
S1130EF0841518F487E0582E01C0542C6A827B8232
S1130F0000E010E0352C360C80E00E94AC00AA8191
S1130F10BB818D93BB83AA83682FC8010E94B5004F
S1130F208C01BA813B12F0CF8FEF850D90E00196D2
S1130F30860D971DE0915F02F09160022181277078
S1130F40223029F4209166022230A9F50BC03FB764
S1130F50F89421E040917D03433008F020E03FBF46
S1130F60222349F1742C75182C01780E80E0741436
S1130F7059F00E94AC00F20181932F01682FC8013F
S1130F800E94B5008C01F2CF0E94AC00682FC8010A
S1130F900E94B5008C0180E00E94AC00682FC8015B
S1130FA00E94B5008C010E94A700E0915F02F091BD
S1130FB0600285A704C00E94A70001E010E00E941F
S1130FC09C00E092210410925202012B09F0B4C15A
S1130FD040905F0250906002D20111968C9111975B
S1130FE0877090916602823029F5923009F01CC115
S1130FF0E0915D04F0915E0413969C9183819813B3
S113100013C180916F008D7F80936F0010927603DF
S1131010E0915D04F0915E0484A5816084A7109240
S113102066021092890210929103F09288020E9443
S11310301101FAC0911117C0C2010E9488048823CB
S113104091F0E0921E03C0921F0310922003F2015C
S11310508381809321038EE193E00E94AB0481118C
S113106002C0D09266020091840010918500C201F2
S11310700E948804882311F0045E1C4F10935003CF
S113108000934F0380918400909185009801281B60
S1131090390BC90118161906ACF4209189022111E3
S11310A00EC02091760321110DC021E02093ED02A2
S11310B0209376030E9439019092890203C020682C
S11310C020938902D20119962C91199730E0322F7E
S11310D0222718968C91282B80915B04A82FB0E0CE
S11310E0FD01EE0FFF1FE05AFB4F408151816091DB
S11310F05F044217530759F4A558BD4F9C919617A6
S113110009F460C06F5F60935F046C931BC0A0E63A
S1131110B4E0EBE7F2E080E090E000E010E0782F4C
S11311204D915D914217530779F480935B04FC0160
S1131130E558FD4F2081261709F444C06F5F609382
S11311405F04608340E825C04191562F541B452F0E
S1131150151710F0702F412F01968530910519F065
S1131160072F142FDCCF70935B04872F90E0FC01D2
S1131170EE0FFF1FE05AFB4F318320836F5F6093B4
S11311805F04FC01E558FD4F6083FC01EF59FD4FFE
S1131190108280915F04982F9F779F3719F0809178
S11311A05B0410C04F37D8F3EBE7F2E0282F207828
S11311B090819F6798132083319692E0E038F90775
S11311C0B9F7EDCFD20113969C91E82FF0E0DF013F
S11311D0AF59BD4F8C91E258FC4F80FF04C0808111
S11311E0981303C021C081608C9390831FB7F89437
S11311F080917D038330B8F4E0918B03E80FE330F2
S113120008F0E350F0E0EE0FFF1FEB5AFD4F708043
S11312100181518240828F5F80937D0383E00E942D
S1131220EC00472C502E1FBF5092600240925F0288
S113123083C09FEF980F933008F069C09EEF980F1A
S11312409230C0F510912104113089F48091760315
S1131250811130C00E949A00D092ED02109376035F
S11312608BE293E00E943901C09221043DC0833097
S113127009F51330F9F40E9464048823D9F08FE04F
S11312800E94170480918100806480938100A6BA33
S113129080916F00806280936F006091810260662C
S11312A088E00E942F0466E082E00E942F04F092FE
S11312B021041AC08091520281508230A8F4809196
S11312C02104853089F40E946404882369F063E072
S11312D082E00E942F0480916F008F7D80936F00C5
S11312E010928303D092210480915202813041F400
S11312F090912104933001F52F9A809321041AC010
S11313008230D1F4809121048330B1F413C087304A
S113131099F40E946404882379F0609181026066E4
S113132088E00E942F0480912104853019F4F09202
S1131330210402C0B092520280915202883029F4F2
S11313401092520281E00E94EC00809152028111BD
S11313501DC0809121048530C9F4809183038111DB
S113136015C080916602811111C08091890281119A
S11313700DC080917603811109C08091880282306A
S113138029F481E0809388020E9411018091520225
S1131390811103C087E00E94EC008FB7F89490910C
S11313A07C039130C9F410927C038FBF0F900F908F
S11313B00F90DF91CF911F910F91FF90EF90DF90ED
S11313C0CF90BF90AF909F908F907F906F905F90E1
S11313D04F903F902F90089591E090937C038FBF9E
S11313E0F8CB9FB7F89480917C03815080937C0361
S11313F0803811F09FBF089581E080937C039FBFE4
S11314000C94C3050F931F93CF93DF931F92CDB713
S1131410DEB78C018FE3F8018287809122028F5F0F
S11314208093220283830E949E008091880281110E
S11314300DC0109379030093780381E080938802B0
S1131440109277030E94110180E001C085E0898336
S11314500E94F10989810F90DF91CF911F910F9123
S11314600895EF92FF921F93CF93DF9300D0CDB7EF
S1131470DEB7182F7A012D3108F078C0FA014281C5
S113148050E0542F44278181482BFA01E774FC7CF7
S1131490E134F84841F04073552741645868F70136
S11314A0418388E88283235FF701208369837A83F9
S11314B00E94E400F701808791879FB7F894809198
S11314C012029FBFF70184831582138769816683A3
S11314D07A8177838FB7F89490912102911110C08B
S11314E092E09093210210920F028FBFC7010E94D5
S11314F0020A182F8823C1F00E94B102812F37C03D
S11315008FBFF0928302E09282021FB7F894809119
S1131510210281110BC081E08093210210920F02FD
S113152080E00E94EC001FBF80E021C08091840213
S11315308F3FC9F481E090E0E0911002EE2311F0B6
S113154080E090E0892B79F4809111028F3F19F4A7
S11315501092110204C0F0E0EC57FD4F108210927B
S1131560100280E001C085E01FBF01C086E00F903B
S11315700F90DF91CF911F91FF90EF9008951F93EB
S1131580CF93DF93182FEB01E82FF0E0EE0FFF1F4E
S1131590EF5AFC4F1182108220910B022F5F2170B1
S11315A062E0822F90E0FC01EE0FFF1FEF5AFC4F28
S11315B040815181452B91F0E22FE695E695E69521
S11315C0F0E0E457FC4F408150E0322F377002C006
S11315D0559547953A95E2F740FF0BC09C012F5F64
S11315E03F4F217033276150E1F682E080930B0274
S11315F002C020930B02E0910B02E230C8F4F0E049
S1131600EE0FFF1FEF5AFC4F0190F081E02D208177
S11316102D50A781B0E07A2F66278681682BAF0111
S113162083850E94310A882319F08BE00E94EC0024
S1131630BE01812FDF91CF911F910C94580220910C
S11316400B02223070F4E22FF0E0EE0FFF1FEF5A8E
S1131650FC4F608171816817790719F4822F0C940B
S1131660BF0A08959F92AF92BF92CF92DF92EF92FA
S1131670FF920F931F93CF93DF93CDB7DEB72A97D3
S11316800FB6F894DEBF0FBECDBFB0900A02A09093
S11316900902C0901802CC2031F0809101028A1511
S11316A008F054C05EC0E1E9F2E0D12CDF011197EB
S11316B08C91882349F08081A1E0B0E0AC0FBD1F7C
S11316C0AD0DB11D8C93D394399682E0EB3EF807AF
S11316D069F78FEF8D0D8A3000F7FE0131967F0197
S11316E08F0189E0982EF80181918F010E94830176
S11316F090E04091020250E0989EF001999EF00D16
S11317001124E057FD4F2281421B510957FF03C0AA
S11317105195419551092091010230E0989EF001C4
S1131720999EF00D1124E057FD4F8381281B310948
S113173037FF03C0319521953109240F351F232B21
S1131740C1F0802F8E198D1570F2A7CFA81658F00E
S1131750809102028B1548F0B81648F0CC2049F06D
S113176033C021E007C022E005C024E003C023E029
S113177001C025E080911F0281111FC08FE292E019
S1131780892BD9F08FE680932F02809115028093E4
S11317903002209331028FEF8093290280932A0232
S11317A086E080932E0263E272E080E00E94A4133C
S11317B0811103C081E080931F029FB7F89482B126
S11317C022E0822782B99FBF2A960FB6F894DEBF23
S11317D00FBECDBFDF91CF911F910F91FF90EF907E
S11317E0DF90CF90BF90AF909F90089590911E028C
S11317F0911122C02EE234E0232B11F481E00895EC
S113180096E790932E049091150290932F04809361
S113181030048FEF809328048093290487E0809319
S11318202D0462E274E081E00E94A4138111E6CFEA
S113183091E090931E02089585E008954F925F927F
S11318406F927F92BF92CF92DF92EF92FF920F93AB
S11318501F93CF93DF93E9E5F3E0C0E0D0E0B084D9
S1131860B1FE49C04080518062807380048115813B
S1131870268137816B017C01C418D508E608F70876
S1131880C016D106E206F306B0F1B0FE04C0E89437
S1131890B1F8B0860AC0D301C201800F911FA21F04
S11318A0B31F80839183A283B383C13031F0C230EC
S11318B041F5E0E9F2E080E008C00E94320B21C06B
S11318C0399692E0EA3EF90729F090819923C1F311
S11318D08F5FF6CF90911B02911109C00E94F60B05
S11318E0811105C081E080931B021092190281E0EE
S11318F08093000206C021963996C330D10509F0C1
S1131900AECF86E0DF91CF911F910F91FF90EF90C2
S1131910DF90CF90BF907F906F905F904F900C942A
S1131920EC008FB7F89490917C03992329F0906888
S113193090937C038FBF089591E090937C038FBFB5
S11319400C94C305CF93DF931F92CDB7DEB70E94EB
S11319509E0080918802811119C0809152028111E8
S113196015C080912104813029F48091760381117E
S11319700DC002C0853099F083E0809352020E942A
S1131980910C85E08093880280E001C085E0898322
S11319900E94F10989810F90DF91CF91089589E028
S11319A0F6CF2F923F924F925F926F927F928F92D7
S11319B09F92AF92BF92CF92DF92EF92FF920F93DA
S11319C01F93CF93DF93CDB7DEB7E5970FB6F894A7
S11319D0DEBF0FBECDBF90E08031910508F0DBC4BF
S11319E0FC01EA59FF4F0C9477158FB7F89492E0F5
S11319F0909321028FBF80910F028111CCC48091FA
S1131A008202909183020E94020A882309F4C3C4CB
S1131A100E94B10280918202909183027BC08091E6
S1131A20880210928802853009F580911E02811186
S1131A30B2C48EE294E0892B09F4ADC483E78093A9
S1131A402E048091150280932F048FEF8093280435
S1131A508093290487E080932D0462E274E081E09E
S1131A600E94A413882309F448C495C49AEF980FDC
S1131A70923008F490C4809388028DC40E949E0022
S1131A8010918802113089F5809177038F5F8093DC
S1131A907703863050F580917803909179032091F3
S1131AA08902211116C020917603211112C090934E
S1131AB0870280938602109389028BED91E10E9444
S1131AC062011093ED02109376030E94390180E0C5
S1131AD001C085E080939103811102C083E001C0BD
S1131AE082E08093880210E003C01092880211E023
S1131AF00E94F109112309F44EC400917803109156
S1131B007903D8011A968C918F3309F044C40E944A
S1131B10B102C8010E941F0B3EC47724739420E3D2
S1131B20222E25E7322E412C512CFE0131965F01E5
S1131B303CE3C32ED12CE12CF12C8FB7F894909177
S1131B407D03992309F423C3E0918B03F0E0EE0FA6
S1131B50FF1FEB5AFD4F008111818FBFD8012C91DB
S1131B608EEF820F893008F4C6C11A968C911A97A9
S1131B708F3309F0ABC185EF820F823008F4BBC10B
S1131B801B963C911B9717968C901797912C982C29
S1131B90882416968C91882ABFEF8B169B0689F4AD
S1131BA0F80154818FB7F894409112028FBF81E0FD
S1131BB090E0541711F080E090E0892B09F49BC168
S1131BC00BC02CAB3DAB0E94E4002CA93DA98816A8
S1131BD0990609F090C1E4CF2D50363021F037300A
S1131BE009F497C088C1253009F079C0D8011C9642
S1131BF08C911C97803709F07EC11D968C911D979E
S1131C008D3009F078C11E962C911E971F969C91D9
S1131C101F9781E050963C91311101C080E02093E0
S1131C2002029093010280931802882351F080915C
S1131C30090230910A02321304C0891302C070925F
S1131C401D02E1E5F4E01192B4E0EB35FB07D9F7AE
S1131C509FB7F89482B124E0822782B99FBF0E9483
S1131C609F01609362037093630380936403909372
S1131C70650324EF31E040E050E0209366033093A5
S1131C806703409368035093690380916A038160FA
S1131C90826080936A0386E00E94EC0080910002D7
S1131CA0882309F428C1109200020E949F016093C6
S1131CB06B0370936C0380936D0390936E03209277
S1131CC06F033092700340927103509272038091BB
S1131CD07303816082608093730386E07FC0233046
S1131CE009F009C1D8011C968C911C978F3609F014
S1131CF002C11E969C901E971D968C910E94830192
S1131D008A3008F0F8C0E82FF0E0EF5AFB4F9082D9
S1131D10F2C0C8010C96F80134853C3709F061C063
S1131D2085858D3009F0E7C08685882E912C9BAA85
S1131D308AAA80911502909116028816990609F0D4
S1131D40DAC097859B3038F0A4E98A2EA2E09A2E57
S1131D50B9AAA8AA19C0D8015096F5018E2F8A19DC
S1131D60891790F78D918193F9CFA8A9B9A96D909E
S1131D70B9ABA8AB262D30E04AA95BA924173507D7
S1131D8041F4B9E08B0E911C88A98A19891768F36C
S1131D901FC0862D9CAB0E9483019CA98A3088F3C6
S1131DA00E9494019CA98A3060F759E0589FF00181
S1131DB01124E057FD4F6182708272827382D401D4
S1131DC0CD92DD92ED92FC92139770921A02D9CFC4
S1131DD080911B02882309F48EC08DE00E94EC00E0
S1131DE08AC03D3709F06DC0F80185858D3009F052
S1131DF082C08685882E912C9BAA8AAA809115027E
S1131E00909116028816990609F075C097859B3043
S1131E1038F0F4E98F2EF2E09F2EB9AAA8AA38C0B0
S1131E20D8015096F5018E2F8A19891790F78D9154
S1131E308193F9CFA8A9B9A96D90B9ABA8AB262D08
S1131E4030E04AA95BA92417350779F1862D9CABAC
S1131E500E9483019CA98A3000F10E9494019CA9EC
S1131E608A3098F459E0589FF0011124E057FD4F4F
S1131E706182708272827382D401CD92DD92ED927E
S1131E80FC921397708670921A02E9E08E0E911CF0
S1131E9088A98A19891770F20BC0B9E0B89FF001BC
S1131EA01124E057FD4F7086F0CF70921D02EDCFE4
S1131EB080911A02882311F08FE090CF0E9469026A
S1131EC01AC02830C1F40E94140315C0D801179613
S1131ED08C901797912C982C882416968C91882A8C
S1131EE00E94E4008816990619F08920809419F458
S1131EF08FB7F8948FBF9FB7F89480918B03E82F26
S1131F00F0E0EE0FFF1FEB5AFD4F118300838F5F4C
S1131F10833018F480938B0302C010928B0380915A
S1131F207D03815080937D039FBF07CEEFB7F89464
S1131F3080918B0290918C02A0918D02B0918E02BF
S1131F401C012D019C01A20160E070E080E090E0A2
S1131F5003E00E947D1551016201E12CF12C00E0A7
S1131F6010E00E94B41559016A017B01F82F192F62
S1131F7003E00E947D150F2F0E94B41559016A01D8
S1131F807B01F82F192F03E00E947D150F2F0E946B
S1131F90B41559016A017B01F82F192F03E00E943F
S1131FA07D150F2F0E94B41559016A017B01F82F8A
S1131FB0192F03E00E947D150F2F0E94B41501E034
S1131FC00E947D1529013A0100E20E9498154901F9
S1131FD05A01D301C201B695A79597958795880DA7
S1131FE0991DAA1DBB1DB7FF04C0BF770196A11D93
S1131FF0B11D80938B0290938C02A0938D02B093B9
S11320008E02EFBF2FB7F89490937B0380937A03EB
S11320102FBFC1C180918002811141C040918403CE
S1132020509185036091860370918703EFB7F8940C
S113203080918D0390918E03A0918F03B0919003B2
S113204000915B0210915C0220915D0230915E026E
S1132050800F911FA21FB31FEFBF409384035093BF
S113206085036093860370938703109280022FB7D1
S1132070F89431E030938A0280935B0290935C027F
S1132080A0935D02B0935E0240938D0350938E0340
S113209060938F03709390032FBF0E94C4010E942A
S11320A09F013CC00E949F012FB7F89410928A02AE
S11320B02FBFE9E5F3E020E044244A94542C642C37
S11320C05FE7752E408541FF1CC0C080D180E2804F
S11320D0F3804B015C018C189D08AE08BF087501A4
S11320E0640184809580A680B7808C189D08AE0812
S11320F0BF0884149504A604B7041CF42401350114
S113210021E0399633E0E437F307E1F6222309F4BA
S113211042C114141504160417041CF00E941E0C6A
S11321203AC1409284035092850360928603709270
S1132130870341E0409380024FB7F89451E05093F5
S11321408A0260935B0270935C0280935D029093B9
S11321505E0240928D0350928E0360928F037092C0
S113216090034FBF0E94C40116C18FB7F894109218
S11321707503109274031092200410921F0410929D
S113218054021092530210924E0310924D038FBFCB
S113219002C11FB7F89482E0809320020E94470492
S11321A01FBF80910C028111F6C08091210481111E
S11321B03AC08EEF91E0019701960197E1F71698E6
S11321C00E949A0086E090E0019701960197E1F75A
S11321D0169A60E083E00E942F0468E082E00E9487
S11321E02F048EEF91E0019701960197E1F76DE4DA
S11321F08EE00E942F0467EC89E00E942F0460E8BF
S113220085E00E942F0410921D0384E180938102D3
S113221064E788E00E942F042F9A81E080932104D0
S11322200E94E102B8C00E94910CB5C080918C0359
S1132230882309F4B0C001E513E0F12CEE24E39403
S113224090918C038E2D892371F0D8016D917C912E
S113225011971D921C928E2D8095892380938C0357
S11322608F2D0E945802EE0CF3940E5F1F4FB8E0BE
S1132270FB12E6CF90C080910B02E82FF0E0EE0F46
S1132280FF1FEF5AFC4F608171810E94BF0A83C017
S113229089E78D878DE08E87809115028F8784EC86
S11322A0898B81E0888B8EE38A8B85E78B8B1C8AF4
S11322B0CE010D960E9414036EC080911E028111FE
S11322C026C08EE294E0892B11F187E780932E04D7
S11322D08091150280932F04109230048FEF809325
S11322E028048093290487E080932D0462E274E03B
S11322F081E00E94A41381110AC081E080931E0230
S11323004AC087E30E94F60B882309F444C00E9464
S1132310690241C002E912E09EE2E92E94E0F92E3E
S113232025E7B22EDD24DA9437E0A32EF8013297A4
S11323308081882331F1F801C080F1E0CF1221C0FF
S1132340F8013197808190911E02911121C0E1140E
S1132350F104F1F0B0922E049091150290932F04A1
S113236080933004D0922804D0922904A0922D04A2
S113237062E274E081E00E94A413811109C0C0925A
S11323801E02075F1F4F22E00C3E120779F6BFCFF3
S11323900E946902F6CFE5960FB6F894DEBF0FBE31
S11323A0CDBFDF91CF911F910F91FF90EF90DF9000
S11323B0CF90BF90AF909F908F907F906F905F90E1
S11323C04F903F902F9008958FB7F89408958FBF42
S11323D008951F920F920FB60F9211240BB60F920D
S11323E02F933F934F935F936F937F938F939F9319
S11323F0AF93BF93EF93FF930E94DB002091B30050
S113240030E02F5F3F4F8091670290916802A09166
S11324106902B0916A02820F931FA11DB11D8093BE
S1132420670290936802A0936902B0936A02789459
S11324300E94C401FF91EF91BF91AF919F918F9141
S11324407F916F915F914F913F912F910F900BBEB0
S11324500F900FBE0F901F9018951F920F920FB6FA
S11324600F9211240BB60F922F933F934F935F93C8
S11324706F937F938F939F93AF93BF93EF93FF9348
S11324800E94DB00FF91EF91BF91AF919F918F91DB
S11324907F916F915F914F913F912F910F900BBE60
S11324A00F900FBE0F901F9018951F920F920FB6AA
S11324B00F9211240BB60F922F933F934F935F9378
S11324C06F937F938F939F93AF93BF93EF93FF93F8
S11324D02EB58091740390917503009739F0E091C3
S11324E04D03F0914E03E80FF91F208380914D03B3
S11324F090914E03019690934E0380934D038CB5B7
S11325008F778CBD80914D0390914E03609153025F
S1132510709154028617970708F03FC020911F045A
S113252030912004E0917403F0917503AC01465F8F
S11325305F4F6417750708F4AB01415051098417C4
S11325409507C8F42115310549F0D901A80FB91F21
S11325506C916EBD0DB407FEFDCF04C01EBC0DB45E
S113256007FEFDCF6EB5309721F0DF01A80FB91F2C
S11325706C930196E4CF4CB540684CBD21153105F0
S113258031F0F901E80FF91F20812EBD01C01EBCF6
S113259090934E0380934D0311C0109275031092D3
S11325A074031092200410921F041092540210928B
S11325B0530210924E0310924D038EB5FF91EF918A
S11325C0BF91AF919F918F917F916F915F914F9147
S11325D03F912F910F900BBE0F900FBE0F901F9045
S11325E0189578941F920F920FB60F9211240BB680
S11325F00F922F933F934F935F936F937F938F9398
S11326009F93AF93BF93EF93FF9380916F008D7F60
S113261080936F0078948FB7F894909176039130FB
S113262019F492E0909376038FBF0E94910CFF916E
S1132630EF91BF91AF919F918F917F916F915F9136
S11326404F913F912F910F900BBE0F900FBE0F90A3
S11326501F90189578941F920F920FB60F92112421
S11326600F900FBE0F901F90189578941F920F92A1
S11326700FB60F9211240F900FBE0F901F90189554
S113268078941F920F920FB60F9211240BB60F92EB
S11326902F933F934F935F936F937F938F939F9366
S11326A0AF93BF93EF93FF93E6E8F0E080819181CD
S11326B0808191812FB7F8949093EB028093EA0282
S11326C081E0809383032FBF0E94910CFF91EF91CF
S11326D0BF91AF919F918F917F916F915F914F9136
S11326E03F912F910F900BBE0F900FBE0F901F9034
S11326F0189578941F920F920FB60F9211242F936E
S11327008F939F93AF93BF932FB7F8948091550302
S113271090915603A0915703B09158030196A11DBF
S1132720B11D8093550390935603A0935703B09320
S113273058032FBFBF91AF919F918F912F910F900D
S11327400FBE0F901F901895CF93DF93FB01C82FF6
S1132750D0E0CC0FDD1FCF5ADC4F28813981232BE9
S1132760F1F47983688390E1908390910B02923025
S1132770C0F09385678170E0762F66272681622BEF
S113278080930B0223E0AF01892F0E94310A882332
S113279041F092E090930B021982188203C085E005
S11327A001C080E0DF91CF9108951FB7F89414BE63
S11327B088E10FB6F89480936000109260000FBE19
S11327C040E150E06FEF70E08BE692E00E94BD15AF
S11327D08FEF8093880380935C0456985E98549896
S11327E05C9880916F008F7D80936F00209A0E9487
S11327F09C00279A0E949A000E9A169A8EEE92E0F6
S11328009093600280935F0210928F028AE5809316
S1132810850281E08093810080E28093B60083E0AA
S11328208093B10080918400909185004AE72091C3
S11328308400309185002817390708F44150442357
S113284011F0C901F4CF8091B2009091B2009817B1
S1132850E1F320918400309185008091B200909141
S1132860B2009817E1F3809184009091850040961E
S1132870821B930B65E0969587956A95E1F7909393
S11328808A03809389031092B10010928100109200
S1132890B6001092B20010928500109284008FEF5F
S11328A087BB86BB8091B6008571E1F70A9A099AC5
S11328B0089A129A119A109A18B88FEF87B90C983F
S11328C01498109285001092840080916F008160AA
S11328D080936F0080918100887F82608093810063
S11328E00E94C7008F3F19F00E94D10CF9CF80934A
S11328F0EC020E947E028091B60080628093B60052
S11329008091B60081FDFCCF82E08093B00080917D
S1132910B60080FDFCCF83E08093B1008091B600C7
S113292083FDFCCF86EE8093B300809170008260BB
S1132930809370000E94C401209115023091160208
S1132940C9010196A0E0B0E080938B0290938C02C1
S1132950A0938D02B0938E0282E993E09093560285
S11329608093550281EC93E0909358028093570230
S113297080EF93E090935A02809359022295207F2E
S1132980209322028FEF809384028FEF9FEF909326
S11329906104809360049093630480936204909331
S11329A06504809364049093670480936604909311
S11329B0690480936804E3E9F2E0C8E9D2E041E005
S11329C05CE3C52ED12CE12CF12C9F01235031095D
S11329D0D9011C922F5F3F4FD9011C922F5F3F4FAB
S11329E0D9014C934083C182D282E382F48218825B
S11329F039962996B2E0ED3EFB0739F70E94C700ED
S1132A008F3F19F00E94D10CF9CF1FBF78940E9418
S1132A10A20CCFB7F8940E94C7008F3F09F04FC0B3
S1132A2080917000837099F08091B6008A71E1F70B
S1132A308091B3009091B200891B8C3010F492E025
S1132A4007C08091B200853FD0F793E001C095E0C4
S1132A5080916E008670E9F480916F008E72C9F4E3
S1132A60809171008E72A9F40CB407FC12C080919D
S1132A70C100887171F48091C900887151F480910A
S1132A80BC0082FD06C080917A0087FF04C0E1E0AB
S1132A9003C0E0E001C0E5E083B79E1708F4E92F26
S1132AA0F0E0E451FF4FE491807F81608E2B83BF7F
S1132AB078948895F89483B78E7F83BFACCFCFBFCB
S1132AC00E94D10CA6CFAA1BBB1B51E107C0AA1FB1
S1132AD0BB1FA617B70710F0A61BB70B881F991FBB
S1132AE05A95A9F780959095BC01CD010895EE0FF4
S1132AF0FF1F0590F491E02D09940F93083090F096
S1132B00982F872F762F652F542F432F322F22276C
S1132B100850F4CF220F331F441F551F661F771F21
S1132B20881F991F0A95B2F70F91089597FB10F823
S1132B30169400080F93083098F00850232F342F70
S1132B40452F562F672F782F892F902DF4CF05947A
S1132B5097958795779567955795479537952795D1
S1132B600A95AAF70F9108952A193B094C095D09A2
S1132B706E097F09800B910B0895DC0101C06D93F0
S10F2B8041505040E0F70895F894FFCF56
S1132B8C0101013C0000003C00010102FFFFFFFFBA
S10B2B9CFFFF2201000100000B
S9030000FC
