:100000000C948B010C94AA010C94AA010C94AA01E3
:100010000C94AA010C94AA010C94AA010C94AA01B4
:100020000C94AA010C94AA010C94AA010C94AA01A4
:100030000C94AA010C94CB170C94AA010C940F18E1
:100040000C9422190C94D3180C940C190C941719B5
:100050000C945B190C94AA010C94AA010C94AA01AB
:100060000C9437180C9486190C94AA010C94FA1964
:100070000C94AA010C94AA010C94AA010C94A21A43
:100080000C94811A0C948C1A0C94971A0C94B51A2F
:100090000C94651A0C94AA010C94761A0C94AA017B
:1000A0000C94AA010C94AA010C94AA010C94AA0124
:1000B0000C94AA010C94AA010C94AA010C94AA0114
:1000C0000C94AA010C94AA010C94AA012E053905DE
:1000D0004E059F05A605AD05B405BB0514112E11EF
:1000E0004A11C1115E126812B01296133B134F13DE
:1000F0009C13C713C113CA138714FF1401150C15E1
:100100000F15341541152417B3174F175917AD178D
:1001100000020E060C0400002110422063308440CF
:10012000A550C660E770088129914AA16BB18CC1C6
:10013000ADD1CEE1EFF13112100273325222B5523D
:100140009442F772D662399318837BB35AA3BDD316
:100150009CC3FFF3DEE36224433420040114E6640D
:10016000C774A44485546AA54BB528850995EEE566
:10017000CFF5ACC58DD55336722611163006D7761D
:10018000F6669556B4465BB77AA719973887DFF7B6
:10019000FEE79DD7BCC7C448E5588668A7784008E5
:1001A000611802282338CCC9EDD98EE9AFF9488906
:1001B00069990AA92BB9F55AD44AB77A966A711A7D
:1001C000500A333A122AFDDBDCCBBFFB9EEB799B56
:1001D000588B3BBB1AABA66C877CE44CC55C222CCD
:1001E000033C600C411CAEED8FFDECCDCDDD2AADA6
:1001F0000BBD688D499D977EB66ED55EF44E133E5D
:10020000322E511E700E9FFFBEEFDDDFFCCF1BBFF5
:100210003AAF599F788F8891A981CAB1EBA10CD1CF
:100220002DC14EF16FE18010A100C230E3200450D7
:10023000254046706760B9839893FBA3DAB33DC34A
:100240001CD37FE35EF3B1029012F322D232354227
:10025000145277625672EAB5CBA5A89589856EF5DA
:100260004FE52CD50DC5E234C324A0148104667477
:10027000476424540544DBA7FAB79987B8975FE72A
:100280007EF71DC73CD7D326F2369106B0165766C7
:100290007676154634564CD96DC90EF92FE9C899B2
:1002A000E9898AB9ABA94458654806782768C01817
:1002B000E1088238A3287DCB5CDB3FEB1EFBF98B8A
:1002C000D89BBBAB9ABB754A545A376A167AF10A67
:1002D000D01AB32A923A2EFD0FED6CDD4DCDAABD9A
:1002E0008BADE89DC98D267C076C645C454CA23CB7
:1002F000832CE01CC10C1FEF3EFF5DCF7CDF9BAF6A
:10030000BABFD98FF89F176E367E554E745E932E06
:10031000B23ED10EF01E11241FBECFEFD1E2DEBFE0
:10032000CDBF12E0A0E0B2E0EAEFFAE300E00BBFDD
:1003300002C007900D92A031B107D9F724E0A0E1E7
:10034000B2E001C01D92AF3CB207E1F70E94D21AA1
:100350000C947B1D0C9400002F980895289A089502
:100360009FB7F894809166038F5F809366039FBF69
:1003700008950DB407FEFDCF8EB50895982F0DB4E6
:1003800007FEFDCF8EB59EBD089528980895862757
:10039000082E8295807F8025092E982F82958F7058
:1003A0000826869598278927880F880F880F80252B
:1003B00008951098089510925E0410925D0484E0F0
:1003C00080934D02109293031092660410925C0485
:1003D0001092630310926203089580918D038F3F02
:1003E00071F0E82FF0E0E458FD4F908190938D0379
:1003F0009F3F11F4909363049FEF908308958FEFD4
:1004000008958091B0008093B0008091B60081FD86
:10041000FCCF08959FB7F894E82FF0E0E458FD4F23
:1004200020812F3FC9F421E030E0E0916304E81718
:1004300011F020E030E0232B79F420918D032F3F41
:1004400019F480938D0304C0F0E0E458FD4F8083DD
:100450008093630480E001C085E09FBF089582E03F
:100460000C940A0284E10C940A022FB7F89480914C
:100470000C0290910D022FBF08950F931F932FB779
:10048000F8948091370390913803A0913903B0918B
:100490003A030091840010918500B09B07C001963B
:1004A000A11DB11D00918400109185002FBF7727F9
:1004B000662720E030E0602B712B822B932B1F915D
:1004C0000F9108954091840050918500EFB7F89402
:1004D00020918400309185002D5F3F4FB901641B4E
:1004E000750B6817790718F49C01240F351F211527
:1004F000310511F421E030E02150310930938900B9
:100500002093880082E086BB80916F008260809398
:100510006F00EFBF08950F931F93CF93DF938C016C
:100520002FB7F894C0916003D0916103CE018F5E24
:100530009E4F90936103809360032FBF84E00E94DD
:100540000A02CE01B8010E94DE1C8A5D9E4FDF9137
:10055000CF911F910F9108952FB7F8943091B20069
:100560008091690290916A02A0916B02B0916C0235
:10057000B99B0FC04091B3003091B200BC01CD01D6
:100580006F5F7F4F8F4F9F4F640F711D811D911DB6
:1005900002C0BC01CD01630F711D811D911D2FBFD4
:1005A0000895982FE8E6F4E080E0DF0111972C91A0
:1005B000222319F02081291721F08F5F39968A3084
:1005C000A1F708952F923F924F925F926F927F9280
:1005D0008F929F92AF92BF92CF92DF92EF92FF9253
:1005E0000F931F93EFB7F8948091B7029091B802E0
:1005F000A091B902B091BA021C012D019C01A20187
:1006000060E070E080E090E003E00E94341D510162
:100610006201E12CF12C00E010E00E946B1D5901F9
:100620006A017B01F82F192F03E00E94341D0F2F60
:100630000E946B1D59016A017B01F82F192F03E0FD
:100640000E94341D0F2F0E946B1D59016A017B010E
:10065000F82F192F03E00E94341D0F2F0E946B1DED
:1006600059016A017B01F82F192F03E00E94341D04
:100670000F2F0E946B1D01E00E94341D29013A01D9
:1006800000E20E944F1D49015A01C301B201969533
:10069000879577956795680D791D8A1D9B1D97FF36
:1006A00005C09F776F5F7F4F8F4F9F4F6093B7025B
:1006B0007093B8028093B9029093BA02EFBF1F9172
:1006C0000F91FF90EF90DF90CF90BF90AF909F90F1
:1006D0008F907F906F905F904F903F902F900895F4
:1006E000E6E1F1E06927660FF11DE60FF11DC895FF
:1006F000982F802D3196C895902508959FB7F8942E
:10070000809117028E7F809317028EE78093B60246
:100710009FBF81E10E940A0280E00895CF93CFB786
:10072000F8948091C404811108C08DE00E940A02EF
:10073000811103C081E08093C404CFBFCF9108959D
:10074000CF92DF92EF92FF92CF93DF93C82FD62FF5
:100750000E94E202CD1728F5CD2ED12CE12CF12CF0
:10076000611571058105910561F06C157D058E059A
:100770009F0538F4AAE0B0E09B01AC010E94291D5E
:10078000F4CFA70196010E94F21C862F6C1750F43B
:100790006C2F0E94D21CDC1BD89FC00D11248C2F03
:1007A00001C080E0DF91CF91FF90EF90DF90CF907C
:1007B0000895809165038A3021F480914D02843040
:1007C00021F081E08093180208958FE00E940A02D0
:1007D0001092180208951F93CF93DF93D82FC62F3E
:1007E00080914D02813061F028F08230F1F0833049
:1007F00061F1AFC0DD2309F4C4C00E94DB01BEC0BB
:10080000D111BFC080916203909163030E94700375
:10081000909363038093620382E080934D02C093C0
:100820006604C43409F095C0ACC0D11192C0609385
:100830005C0480916203909163030E947003909323
:1008400063038093620383E09AC0109193031F3F78
:1008500009F47FC0DD2309F44EC0123008F479C0DA
:10086000E0915D04EE2311F0E15001C0E2E0AE2F13
:10087000B0E0A35ABB4F12964C9150E0542F44273E
:10088000EE2311F0E15001C0E2E0F0E0E35AFB4F4B
:100890008281482B209162033091630342175307F2
:1008A00009F057C020915C04E091250330912603A4
:1008B00081E08E0F863010F4982F01C090E09317DE
:1008C00069F0F0E0EB5DFC4F2283863018F48093F2
:1008D000250302C0109225030E948E030E94DB01B3
:1008E000809117028D7F80931702809118028823D0
:1008F00009F447C039C01230C8F080915E04E82F77
:10090000F0E0E35AFB4F62818F5F833018F48093ED
:100910005E0402C010925E048091620390916303B2
:100920000E947003909363038093620380915D043F
:10093000E82FF0E0E35AFB4FC2838F5F833018F457
:1009400080935D0402C010925D041F5F10939303B7
:1009500018C00E94DB01809117028D7F80931702DF
:1009600080911802882341F084E080934D02DF914A
:10097000CF911F910C94D903DD2319F081E080936E
:100980004D02DF91CF911F910895882319F0813096
:1009900039F008956E51724041F410921602089594
:1009A0006D52744011F41092140208958091C302A4
:1009B0009091C402892BC1F581E090E09093880367
:1009C0008093870386EB92E09093C4028093C302E6
:1009D0001092A9021092A80281E08093B402809143
:1009E000C00080648093C0008091C10080648093C7
:1009F000C1008091A8029091A9029C012F5F3F4FF6
:100A00003093A9022093A802FC01EA54FD4F808193
:100A10009FB7F8948093C6008091C0008064809353
:100A2000C0009FBF80E0089585E008958093B602DE
:100A30000C94D604FF920F931F93CF93DF931FB7AD
:100A4000F8948091650390E0FC013197E830F1055E
:100A500008F08EC0EA59FF4F0C94141D80911C02BF
:100A60000E941605082F83E08093650360911C02A5
:100A70000AC08091C1020E941605082F83E080936E
:100A800065036091C10280912D0390912E030E9415
:100A9000700390932E0380932D0368C0E0915B0256
:100AA000F0E0EE0FFF1FEE5AFD4F80810E94160509
:100AB000082FF0905B02CF2DD0E0CC0FDD1FFE01A0
:100AC000EE5AFD4F608180912D0390912E030E947C
:100AD000700390932E0380932D0380915C028F5FAF
:100AE00080935C0281E0F81228C020916703309166
:100AF000680340919103509192032417350778F4CD
:100B0000E091A602F091A702A9014F5F5F4F5093B9
:100B1000680340936703E20FF31F808104C082E003
:100B2000809353028FEFFE01EF5AFD4F9081923078
:100B300091F0CE5ADD4F888319C084E012C08091B5
:100B40002D030E941605082F85E00BC080912E030F
:100B50000E941605082F86E004C00E947E03082F1D
:100B600087E08093650302C088E003C0002329F07A
:100B700089E0809365030E948E031FBFDF91CF91B0
:100B80001F910F91FF9008950E94E2026115710577
:100B90008105910561F06F3171058105910538F48A
:100BA000AAE0B0E09B01AC010E94291DF4CF2FE127
:100BB00030E040E050E00E94F21C862F623008F4E2
:100BC00082E00895CF93CFB7F894209119022111B4
:100BD00016C021E0209319022AEA32E03093A702DE
:100BE0002093A6029093920380939103109268033E
:100BF000109267038AE00E940A02CFBF02C0CFBFF3
:100C000085E0CF910895CF92DF92EF92FF92CF933C
:100C1000C82F87E08093AA0282E08093AB0229E08C
:100C2000C29FF0011124E959FB4F81818093AC02EE
:100C300082818093AD0283818093AE02C480D5808F
:100C4000E680F7800E94AC02A7019601261B370BB5
:100C5000480B590BCA01B90128EE33E040E050E0DF
:100C60000E94F21C2093B0023093AF0287E090E024
:100C70000E94E205882369F081E080931202C0930C
:100C80002C0487E1CF91FF90EF90DF90CF900C94F0
:100C90000A02CF91FF90EF90DF90CF900C94D90192
:100CA000CF93CFB7F89480911A0281110BC081E0E5
:100CB00080931A021092050289E00E940A02CFBFB7
:100CC00080E01FC08091C2028F3FC9F481E090E0B4
:100CD000E0910602EE2311F080E090E0892B79F498
:100CE000809107028F3F19F41092070204C0F0E0D0
:100CF000EE53FD4F10821092060280E001C085E0A5
:100D0000CFBFCF910895CF93CFB7F89480911B02B6
:100D1000823029F580910802811121C080910A0258
:100D20008F3FB1F0E82FF0E0E056FD4F90819093B7
:100D30000A029F3F11F4909309029FEF90838093E2
:100D4000080281E080931B0280E00E940A0204C036
:100D50008093080210921B02CFBF80E002C0CFBF79
:100D600081E0CF910895CF93CFB7F89480911A0284
:100D7000823041F580910502811124C080910702E3
:100D80008F3FB1F0E82FF0E0EE53FD4F908190934C
:100D900007029F3F11F4909306029FEF9083809388
:100DA000050281E080931A0289E00E940A0204C0D1
:100DB0008093050210921A028CB58F7B8CBDCFBF39
:100DC00080E002C0CFBF81E0CF910895CF92DF9243
:100DD000EF92FF920F931F93CF93CFB7F894209188
:100DE000B3009091B20087B3291711F081FF02C0C0
:100DF000CFBF78C08091B502811102C086EE3AC0A3
:100E00000E94AC0200915D0210915E0220915F028F
:100E100030916002C0909503D0909603E0909703C4
:100E2000F0909803601B710B820B930B6C157D0582
:100E30008E059F0528F01092B50286EE31E01BC0AA
:100E4000D701C601800F911FA21FB31F40916902F5
:100E500050916A0260916B0270916C02841B950B39
:100E6000A60BB70B873E9105A105B10538F6823078
:100E700008F482E030E02FEF280F9091B60093FD48
:100E8000FCCF9091B200291301C0282F80916902F4
:100E900090916A02A0916B02B0916C02AC01BD010D
:100EA0004F5F5F4F6F4F7F4F420F511D611D711D8F
:100EB000481759076A077B0710F4282F209580915F
:100EC000B60083FDFCCF2093B300CFBF332351F096
:100ED00085E0CF911F910F91FF90EF90DF90CF9021
:100EE0000C940A02CF911F910F91FF90EF90DF9029
:100EF000CF900895CF93DF931F92CDB7DEB789834C
:100F00000E94C501898180688EBD80E00E94BE017B
:100F10000E94B90189830E94AE0189810F90DF91FF
:100F2000CF9108951F93CF93DF931F92CDB7DEB774
:100F3000182F69830E94C501912F906C9EBD8981F5
:100F40000E94BE010E94B9010F90DF91CF911F91C5
:100F50000C94AE018CB58F7B8CBD229A2398219A7C
:100F6000209A8CB580618CBD8CB58F778CBD8CB58B
:100F7000877F8CBD8CB58B7F8CBD8CB580648CBD20
:100F80008DB581608DBD8CB58C7F8CBD0895CF9360
:100F90008FB7F89490910502911106C090911A02B2
:100FA000923011F48FBF0FC08FBFCFB7F8948091EC
:100FB0001A0281110AC082E080931A02109205027F
:100FC0000E94AA07CFBF81E004C0CFBF0E94500695
:100FD00080E0CF910895CF93DF93FC01828190E070
:100FE000982F88272181822B85FF14C087749C7CD1
:100FF0008134984879F4C781D0E0DC2FCC278681F2
:10100000C82B0E94350221E0C817D90709F020E05B
:10101000822F01C080E0DF91CF910895CF93DF93BD
:1010200081E080936C039091640390936D039091A1
:10103000690390936E0390911102992319F08093A4
:101040006F0302C010926F0390919F02E6E5F3E0F8
:10105000A8E6B4E085E0992389F0208129130EC029
:10106000ED0121972881222349F02C91222331F090
:10107000C82FD0E0C559DC4F28838F5F1192199695
:1010800023E0E036F20739F780936B03CFB7F8948B
:1010900090911902911119C092E0909319022BE6D8
:1010A00033E03093A7022093A60290E0909392033E
:1010B0008093910310926803109267038AE00E9464
:1010C0000A02CFBF882339F001C0CFBF89E1DF9189
:1010D000CF910C940A0210921002DF91CF910895E3
:1010E000FF920F931F93CF93DF9310921102809181
:1010F0009F028330E1F028F4813059F0823079F09A
:1011000023C08430D1F08530F9F481E0809311025E
:101110001BC0809169038E31B8F48F5F05C0809148
:101120006903833088F08150809369030DC08091FA
:101130006403833048F0815005C0809164038E3190
:1011400018F48F5F809364038091110281110AC0AB
:101150000E940E0888E1DF91CF911F910F91FF90BF
:101160000C940A021091690300916403CFE6D4E065
:10117000FF24F394FE0138978081882361F0329632
:101180008081801308C031968081811304C0F88269
:1011900086E10E940A02299684E0C93CD80751F7EB
:1011A000D7CF4F925F926F927F92BF92CF92DF9292
:1011B000EF92FF920F931F93CF93DF93CDB7DEB7DC
:1011C0002A970FB6F894DEBF0FBECDBFB09045038F
:1011D000B1FE23C0C0903D03D0903E03E0903F039A
:1011E000F0904003CF82D886E986FA86409041038A
:1011F0005090420360904303709044036B017C0164
:101200002F81388549855A85C21AD30AE40AF50A1E
:10121000C414D504E604F70440F5B0904E03B1FEC3
:10122000A5C0C0904603D0904703E0904803F090DB
:101230004903CF82D886E986FA8640904A035090C7
:101240004B0360904C0370904D038B019C010C1973
:101250001D092E093F09041515052605370508F453
:1012600085C021E0E6E4F3E003C020E0EDE3F3E035
:10127000B0FE04C080858D7F80870CC08F819885EB
:10128000A985BA85840D951DA61DB71D8083918300
:10129000A283B383213009F069C0809110028111CB
:1012A00065C02093100219821A821B821C821D8243
:1012B0001E82E6E5F3E09191992351F0A1E0B0E0C0
:1012C000AC0FBD1FA90FB11D8C918F5F8C9381E076
:1012D00023E0E036F20779F7811103C010929F02F4
:1012E00043C08A812B81281708F4282F8C81281766
:1012F00008F4282F8D81281708F4282F8E812817AD
:1013000008F4282FCE010796FE01329660E031E006
:101310004081421303C030836F5F01C01082319659
:10132000E817F907A9F7623098F06F5F81E00E9433
:10133000A003FE01329691E02191213029F48150E1
:1013400019F490939F0210C09F5F9630A9F70CC0CC
:10135000FE01329681E09191913019F480939F02C1
:1013600003C08F5F8630B9F70E94700886E02A9626
:101370000FB6F894DEBF0FBECDBFDF91CF911F91A6
:101380000F91FF90EF90DF90CF90BF907F906F9084
:101390005F904F900C940A023F924F925F926F922F
:1013A0007F928F929F92AF92BF92CF92DF92EF92F5
:1013B000FF920F931F93CF93DF9300D000D0CDB750
:1013C000DEB78C0180914E02811140C080912904CA
:1013D0008530E1F580918403811138C00E94C707F0
:1013E0008823A1F1F80184A582FF03C066A56F7070
:1013F00001C060E08091F502681731F06093F5025A
:10140000606885E00E949207F801828190E0982F41
:1014100088272181822B87749C7C81349848C1F471
:1014200086E00E947A078F7190E04091BB02209184
:10143000A10230E0240F311D43E0359527954A95F0
:10144000E1F72817390724F40E94B30685E0A6C007
:1014500069E082E00E9492070E943D022B013C015C
:1014600078012FEFE21AF20AF801B08084A53EEF6E
:10147000932E9B0C84FF0AC02BEFA22EAB0C98017D
:101480002E193F09A20E392C3A1802C0A92C312C72
:1014900081E00E947A078F71893029F066E082E04E
:1014A0000E949207D1CF8FB7F8942F9AC0908400F2
:1014B000D09085008FBF0E94AC010E94C50180E6DC
:1014C0008EBD8B2D0E94BE014701BA2CBE0CF401CB
:1014D00081914F010E94BE01B810F9CFAA94B12C9E
:1014E000B7016A0D7B1DA5014F5F5F4F4E0D5F1D5C
:1014F00096012E553F4F241935094901AA2497FC1E
:10150000A094BA2C840C951CA61CB71C332079F12E
:10151000FB018181C280D12CE12CF12C7601DD24EC
:10152000CC24F82A8481C82A8381D82AD701C6010D
:1015300088199909AA09BB0984839383A283B1837B
:10154000712CFA01E70DF11D808149835A836B8369
:101550007C830E94BE01739449815A816B817C8196
:101560007310EFCFFB01C482D382E282F1820E942A
:10157000B9010E94AE0166E082E00E949207F80184
:1015800084A5826084A780A691A6A2A6B3A686E0C1
:101590008093290484E080934E0280E00F900F90A6
:1015A0000F900F90DF91CF911F910F91FF90EF90CF
:1015B000DF90CF90BF90AF909F908F907F906F9073
:1015C0005F904F903F9008952F923F924F925F927D
:1015D0006F927F928F929F92AF92BF92CF92DF9243
:1015E000EF92FF920F931F93CF93DF9300D01F9240
:1015F000CDB7DEB744E0F42E50E8952E65E0E62E38
:1016000073E0D72EE9E08E2EF2E0CF2EA8E0BA2EBE
:10161000B0E2AB2E80915103823009F097C0109256
:1016200051032091C502223009F473C0233009F41C
:101630007BC0213009F08AC08091840090918500A0
:101640006090310370903203681A790A8091A50284
:10165000803851F41092A5028091A402823009F0E2
:1016600075C02093A4025DC087FF03C01614170441
:10167000FCF00091A2021091A302809168028111F6
:1016800017C0C8010E94CC09282F811112C0D801AF
:101690009C968C919C978E7F9C968C9381E08093F6
:1016A00068021093650400936404D092A5024EC0B2
:1016B00025E08091A502982F9F77913081F4807862
:1016C00082608093A50280E198E00E948B0221E075
:1016D0002093C502209351030E94620237C087FF06
:1016E00010C0161417046CF49092A50281E0809348
:1016F000C50280935103C30129830E94620229819C
:1017000002C01092A5022093990381E08093A40265
:1017100008C0109268021092A50210929903F092EC
:10172000A4020E942F0212C080912904823019F471
:101730002093290409C080914E02863029F410922A
:101740004E0281E00E947A070E94B61080918403C5
:10175000882309F4C7C080912904813009F4C2C0EC
:101760000E94C707882309F4BDC08FB7F894009181
:10177000BF021091C0028FBF109284038FE00E94BD
:101780007A07782E80914E028B7F833021F4E0928D
:101790002904B0924E0272FE48C080914E028630FB
:1017A00011F410924E0280914E0281113EC0B4E0BD
:1017B0007B1232C086E00E947A078F719091A1025D
:1017C000292F26952695921B980F9093A102E091C0
:1017D0006102F091620294A59B7F986094A786A70E
:1017E0000E943D02A80147505109461B570B1A01A0
:1017F000442437FC4094542CE0916102F091620241
:1018000024A5226024A7260E371E481E591E20A696
:1018100031A642A653A607C0E0916102F091620290
:1018200084A5857F84A7E0924E0273FE5BC0809101
:101830004E02843009F045C0E092290410924E0215
:1018400080916802833019F4109268024BC0E091D5
:101850006404F0916504828190E0982F88272181AB
:10186000822B85FF23C087749C7C81349848F1F4D7
:10187000878190E0982F88272681822B21E030E015
:10188000019611F420E030E0232B81F08091510388
:1018900081110CC0C092C50281E08093510389E997
:1018A00093E00E946202C09268021CC0109268021B
:1018B0001092A50210929903F092A4020E942F02A6
:1018C00011C0853079F486E00E947A079091BB02BE
:1018D000292F26952695921B8F71980F9093BB0206
:1018E00080924E0280914E02882309F44FC28930C3
:1018F00009F0C0C10E94C501AEBC0DB407FEFDCF0A
:101900008EB51EBC0DB407FEFDCF8EB59DEF980FB2
:10191000973208F073C01EBCE0916102F091620240
:101920003F015FEF651A750A80839EEF492E480ECE
:1019300086E0841518F487E0582E01C0542C6A8282
:101940007B8200E010E0352C360C80E00E94BE0166
:10195000AA81BB818D93BB83AA83682FC8010E9493
:10196000C7018C01BA813B12F0CF8FEF850D90E05B
:101970000196860D971DE0916102F091620221812E
:101980002770223029F4209168022230A9F50BC07B
:101990003FB7F89421E040916A03433008F020E01B
:1019A0003FBF222349F1742C75182C01780E80E07A
:1019B000741459F00E94BE01F20181932F01682F27
:1019C000C8010E94C7018C01F2CF0E94BE01682F9E
:1019D000C8010E94C7018C0180E00E94BE01682FEF
:1019E000C8010E94C7018C010E94B901E091610207
:1019F000F091620285A704C00E94B90101E010E0E5
:101A00000E94AE01E092290410924E02012B09F0CF
:101A1000B4C14090610250906202D20111968C9143
:101A20001197877090916802823029F5923009F001
:101A30001CC1E0916404F091650413969C9183812C
:101A4000981313C180916F008D7F80936F00109267
:101A50005103E0916404F091650484A5816084A73A
:101A6000109268021092A50210929903F092A402BB
:101A70000E942F02FAC0911117C0C2010E94EB0709
:101A8000882391F0E092F602C092F7021092F802D9
:101A9000F20183818093F90286EF92E00E94CC09E3
:101AA000811102C0D09268020091840010918500DB
:101AB000C2010E94EB07882311F0045E1C4F1093B3
:101AC0003203009331038091840090918500980146
:101AD000281B390BC90118161906ACF42091A50270
:101AE00021110EC02091510321110DC021E020933E
:101AF000C502209351030E9462029092A50203C086
:101B000020682093A502D20119962C91199730E0F4
:101B1000322F222718968C91282B80916204A82FAF
:101B2000B0E0FD01EE0FFF1FEB53FB4F40815181F1
:101B30006091C1044217530759F4AA56BD4F9C91B6
:101B4000961709F460C06F5F6093C1046C931BC06B
:101B5000A5ECB4E0E6E9F2E080E090E000E010E01F
:101B6000782F4D915D914217530779F48093620469
:101B7000FC01EA56FD4F2081261709F444C06F5F2F
:101B80006093C104608340E825C04191562F541BE7
:101B9000452F151710F0702F412F019685309105B4
:101BA00019F0072F142FDCCF70936204872F90E079
:101BB000FC01EE0FFF1FEB53FB4F318320836F5F60
:101BC0006093C104FC01EA56FD4F6083FC01ED59AE
:101BD000FD4F10828091C104982F9F779F3719F095
:101BE0008091620410C04F37D8F3E6E9F2E0282F65
:101BF000207890819F6798132083319692E0EB398B
:101C0000F907B9F7EDCFD20113969C91E82FF0E0D8
:101C1000DF01AD59BD4F8C91E158FC4F80FF04C0EE
:101C20008081981303C021C081608C9390831FB77B
:101C3000F89480916A038330B8F4E0919003E80F40
:101C4000E33008F0E350F0E0EE0FFF1FEB5AFD4FDA
:101C500070800181518240828F5F80936A0383E0AC
:101C60000E940A02472C502E1FBF509262024092DF
:101C7000610283C09FEF980F933008F069C09EEF18
:101C8000980F9230C0F510912904113089F4809199
:101C90005103811130C00E94AC01D092C502109353
:101CA00051038BE293E00E946202C09229043DC07E
:101CB000833009F51330F9F40E94C7078823D9F05F
:101CC0008FE00E947A078091810080648093810078
:101CD000A6BA80916F00806280936F0060919C0231
:101CE000606688E00E94920766E082E00E949207A8
:101CF000F09229041AC080914E0281508230A8F4DB
:101D000080912904853089F40E94C707882369F0EF
:101D100063E082E00E94920780916F008F7D809344
:101D20006F0010928403D092290480914E0281307A
:101D300041F490912904933001F52F9A809329045E
:101D40001AC08230D1F4809129048330B1F413C0D9
:101D5000873099F40E94C707882379F060919C022C
:101D6000606688E00E94920780912904853019F40A
:101D7000F092290402C0B0924E0280914E02883047
:101D800029F410924E0281E00E940A0280914E02D4
:101D900081111DC0809129048530C9F4809184038C
:101DA000811115C080916802811111C08091A50236
:101DB00081110DC080915103811109C08091A4024D
:101DC000823029F481E08093A4020E942F02809146
:101DD0004E02811103C087E00E940A028FB7F89477
:101DE000909166039130C9F4109266038FBF0F90F3
:101DF0000F900F90DF91CF911F910F91FF90EF9077
:101E0000DF90CF90BF90AF909F908F907F906F901A
:101E10005F904F903F902F90089591E090936603CC
:101E20008FBFF8CB9FB7F894809166038150809361
:101E30006603803811F09FBF089581E080936603A8
:101E40009FBF0C94E40A0F931F93CF93DF931F92CD
:101E5000CDB7DEB78C018FE3F801828780911D0238
:101E60008F5F80931D0283830E94B0018091A40242
:101E700081110DC0109355030093540381E08093AA
:101E8000A402109252030E942F0280E001C085E05C
:101E900089830E94120F89810F90DF91CF911F914A
:101EA0000F910895EF92FF921F93CF93DF9300D08D
:101EB000CDB7DEB7182F7A012D3108F078C0FA01BE
:101EC000428150E0542F44278181482BFA01E77466
:101ED000FC7CE134F84841F0407355274164586870
:101EE000F701418388E88283235FF70120836983B8
:101EF0007A830E943502F701808791879FB7F89413
:101F000080910B029FBFF70184831582138769813B
:101F100066837A8177838FB7F89490911B02911131
:101F200010C092E090931B02109208028FBFC7016D
:101F30000E94230F182F8823C1F00E948306812F4F
:101F400037C08FBFF0929E02E0929D021FB7F894B7
:101F500080911B0281110BC081E080931B021092C3
:101F6000080280E00E940A021FBF80E021C0809129
:101F7000A0028F3FC9F481E090E0E0910902EE23D6
:101F800011F080E090E0892B79F480910A028F3F74
:101F900019F410920A0204C0F0E0E056FD4F1082DE
:101FA0001092090280E001C085E01FBF01C086E0F9
:101FB0000F900F90DF91CF911F91FF90EF900895B8
:101FC0001F93CF93DF93182FEB01E82FF0E0EE0F74
:101FD000FF1FED5CFC4F11821082209104022F5FE5
:101FE000217062E0822F90E0FC01EE0FFF1FED5C9C
:101FF000FC4F40815181452B91F0E22FE695E6950B
:10200000E695F0E0EC56FC4F408150E0322F3770FF
:1020100002C0559547953A95E2F740FF0BC09C01E9
:102020002F5F3F4F217033276150E1F682E08093AC
:10203000040202C020930402E0910402E230C8F4DA
:10204000F0E0EE0FFF1FED5CFC4F0190F081E02D02
:1020500020812D50A781B0E07A2F66278681682BDA
:10206000AF0183850E94520F882319F083E10E94FB
:102070000A02BE01812FDF91CF911F910C94C504FC
:1020800020910402223070F4E22FF0E0EE0FFF1FE7
:10209000ED5CFC4F608171816817790719F4822F1C
:1020A0000C94E00F0895CF93DF93FB01242FC82FEA
:1020B000D0E0CC0FDD1FCD5CDC4F68817981672BD0
:1020C000F1F4F983E8839DE0940F908390910402EA
:1020D0009230B8F09385678170E0762F662736815D
:1020E000632B80930402AF01892F0E94520F882333
:1020F00041F092E0909304021982188203C085E0B7
:1021000001C080E0DF91CF910895942F44E0420F09
:102110004D3158F5E9E3F4E0EF2B39F180933904C0
:102120008DE080933A0460933B0420933C04392F64
:10213000ADE3B4E0E92FF52F8E2F831B821718F43F
:1021400081918D93F9CF8FEF809333048093340482
:1021500087E0809338046DE274E081E00E945310C0
:10216000811103C081E08093140208958FB7F89421
:1021700090916603992329F09068909366038FBF2E
:10218000089591E0909366038FBF0C94E40ACF9377
:10219000DF931F92CDB7DEB70E94B0018091A402F9
:1021A000811119C080914E02811115C080912904BE
:1021B000813029F48091510381110DC002C0853016
:1021C00099F083E080934E020E94B61085E08093E0
:1021D000A40280E001C085E089830E94120F8981FA
:1021E0000F90DF91CF91089589E0F6CF8F929F9263
:1021F000AF92BF92CF92DF92EF92FF920F931F9315
:10220000CF93DF93CDB7DEB72C970FB6F894DEBF30
:102210000FBECDBF90E08A31910508F0A4C6FC0145
:10222000E259FF4F0C94141D8FB7F89492E09093ED
:102230001B028FBF80910802811195C680919D027B
:1022400090919E020E94230F882309F48CC60E945D
:10225000830680919D0290919E0268C08091A402A5
:102260001092A402853071F48FB7F89490916503B1
:102270009A3029F090914D02943009F00EC28FBF30
:102280008EE06FC69AEF980F923008F46CC6809378
:10229000A40269C60E94B0011091A402113089F510
:1022A000809152038F5F80935203863050F5809166
:1022B0005403909155032091A502211116C020913D
:1022C0005103211112C09093A3028093A202109394
:1022D000A5028BED91E10E948B021093C502109331
:1022E00051030E94620280E001C085E0809399035F
:1022F000811102C083E001C082E08093A40210E05B
:1023000003C01092A40211E00E94120F112309F4DD
:102310002AC60091540310915503D8011A968C9146
:102320008F3309F020C60E948306C8010E94401026
:102330001AC6E0919003F0E0EE0FFF1FEB5AFD4F3D
:10234000008111818FBFF80120818EEF820F8930CB
:10235000F8F49FB7F89480919003E82FF0E0EE0F27
:10236000FF1FEB5AFD4F118300838F5F833008F00E
:10237000A2C08093900380916A03815080936A0386
:102380009FBF8FB7F89490916A039111D2CF85C106
:1023900082858F3309F07BC085EF820F8230C8F2CF
:1023A0003385E780F12CFE2CEE248681E82AFFEFAE
:1023B000EF16FF0691F4D80114965C918FB7F8944C
:1023C00040910B028FBF81E090E0541711F080E044
:1023D00090E0892B09F4BDCF0BC02B873C870E946E
:1023E00035022B853C85E816F90609F0B2CFE3CF1C
:1023F0002D50363019F0373031F1ABCF233009F0A2
:10240000A8CFF80184858F3609F0A3CFF68485859F
:102410009091100291119DCFF6E0FF1204C088E167
:102420000E940A0296CF9FEF9F0D953008F091CF42
:102430000E94D1028A3008F08CCFE82FF0E0EA5AEF
:10244000FC4FF08286CF233009F083CF2091150214
:102450002530D4F4822F992787FD9095D8011C96BA
:102460003C911C97FC01EE0FFF1FE80FF91FE35989
:10247000FD4F32831D968C911D9781831E968C9102
:1024800080832F5F209315020E94320262CFF801F1
:10249000E780F12CFE2CEE248681E82A0E9435028A
:1024A000E816F90621F0EF20E09409F052CF8FB73B
:1024B000F8948FBF4ECF109290035DCF0E94E2023E
:1024C0002FB7F89470936103609360032FBF4BC5DF
:1024D00080919B02811141C04091890350918A03F0
:1024E00060918B0370918C03EFB7F8948091950302
:1024F00090919603A0919703B091980300915D028B
:1025000010915E0220915F0230916002800F911F56
:10251000A21FB31FEFBF4093890350938A036093B8
:102520008B0370938C0310929B022FB7F89431E0C9
:102530003093B50280935D0290935E02A0935F0298
:10254000B093600240939503509396036093970372
:10255000709398032FBF0E94E6060E94AC0264C0ED
:102560000E94AC022FB7F8941092B5022FBF2091B1
:10257000450321FF24C000913D0310913E032091AB
:102580003F03309140036B017C01C01AD10AE20A7B
:10259000F30A8090410390904203A0904303B090CF
:1025A00044038C189D08AE08BF08E1E02FEF8216A7
:1025B0009206A2062FE7B20649F4E0E007C0E0E089
:1025C00088248A94982CA82CFFE7BF2E20914E03D4
:1025D00021FF22C000914603109147032091480338
:1025E000309149036B017C01C01AD10AE20AF30A57
:1025F00000914A0310914B0320914C0330914D03FD
:102600000C191D092E093F09081519052A053B0556
:102610001CF44801590103C0EE2309F4A4C41814A2
:1026200019041A041B041CF00E94D1089CC4809257
:10263000890390928A03A0928B03B0928C0321E0CD
:1026400020939B022FB7F89431E03093B50260934A
:102650005D0270935E0280935F02909360028092AD
:10266000950390929603A0929703B09298032FBF80
:102670000E94E60678C48FB7F89410925003109227
:102680004F031092280410922704109250021092C7
:102690004F021092300310922F038FBF64C41FB7F4
:1026A000F89482E080931A020E94AA071FBF8091CB
:1026B0000502811158C48091290481113AC08EEF1E
:1026C00091E0019701960197E1F716980E94AC01FD
:1026D00086E090E0019701960197E1F7169A60E095
:1026E00083E00E94920768E082E00E9492078EEFEA
:1026F00091E0019701960197E1F76DE48EE00E9469
:10270000920767EC89E00E94920760E885E00E94EA
:1027100092071092F50284E180939C0264E788E0BE
:102720000E9492072F9A81E0809329040E94B306A9
:102730001AC40E94B61017C41FB7F894E091A602FD
:10274000F091A70280916703909168039C012F5F2D
:102750003F4F3093680320936703E80FF91F808190
:10276000909165039A3059F090915302911107C0EE
:1027700091E090935302809354020E948E031FBFF6
:10278000F2C380911902813011F40E94D901109294
:102790001902E9C32FB7F8941092C404909165030D
:1027A00088EF890F823050F410926503E0915B024C
:1027B000F0E0EE0FFF1FEF5AFD4F10822FBF823067
:1027C00010F52FB7F8948091C1028F5F8093C102FA
:1027D00080911C02833481F480912603909125031B
:1027E000981739F08F5F80932603863010F010928F
:1027F000260390E080E005C081E0983009F480E095
:1028000091E02FBF03C0911159C080E03FB7F89409
:10281000209118023FBF222339F02FB7F8943AE0F5
:10282000309365032FBF3FC04FB7F89430915102EA
:10283000209153024FBF6FB7F894509125034091F8
:1028400026036FBF541709F131111FC03FB7F89429
:1028500022E0209351025FB7F89440912503209124
:1028600026035FBF421739F0E0912603F0E0EB5DED
:10287000FC4F228101C020E02093520223E42093E8
:102880001C0210925B023FBF0CC02150223058F452
:102890002FB7F89435E430931C0231E030935B029B
:1028A0002FBF11E001C010E0992349F0811102C04F
:1028B0008BE001C08CE00E940A0201C010E00FB75B
:1028C000F894809165038A3021F40E94D9030FBFE8
:1028D0004AC30FBF112309F446C38FB7F89410926F
:1028E0002E0310922D0310925C0293E090936503E7
:1028F0008FBF0E947E03882309F435C38FB7F894F5
:1029000099E0909365038FBF0E948E032CC3809142
:10291000C1008F7B8093C1008091C1008F7780932D
:10292000C100109253031092B4028091C1008860DC
:102930008093C1008091C10080618093C10080912B
:10294000C10080688093C1008FB7F894109265032E
:1029500010924D028FBF0E94AC026054784D864F9A
:102960009F4F609300027093010280930202909344
:10297000030285E10E940A02E6E5F3E0119233E0EA
:10298000E036F307D9F70E94AC022FB7F8946F5FD7
:102990007F4FCB01A0E0B0E08093B7029093B802E4
:1029A000A093B902B093BA022FBF6FE182E00E94F8
:1029B000A003809369036FE182E00E94A0038093EB
:1029C00064030E94AC0260934603709347038093B4
:1029D00048039093490388EB9BE0A0E0B0E080932C
:1029E0004A0390934B03A0934C03B0934D03809103
:1029F0004E038E7F826080934E0386E0B2C280E1F8
:102A0000B0C28091C100877F8093C1008091C100D6
:102A10008F7E8093C100A7C20E941A05A4C2809134
:102A20009403882309F49FC203E313E0F12CEE24FE
:102A3000E394909194038E2D892371F0D8016D91C8
:102A40007C9111971D921C928E2D809589238093E5
:102A500094038F2D0E94C504EE0CF3940E5F1F4F5C
:102A6000B8E0FB12E6CF7FC280910402E82FF0E0CD
:102A7000EE0FFF1FED5CFC4F608171810E94E00F43
:102A800072C2809114028111D9C1809115028150C6
:102A900080931502992787FD9095AC01440F551F2F
:102AA000FA01E80FF91FE359FD4F2281253709F498
:102AB00036C130F4233771F0243709F4DCC0BAC1D1
:102AC000263709F46FC1273709F0B4C1EFE6F4E007
:102AD00020E089C10E94D90180911502992787FDC4
:102AE0009095FC01EE0FFF1FE80FF91FE359FD4F12
:102AF000A1808A2D0E94D102B82E0E94AC02E9E08A
:102B0000EB1568F4E7E6F4E0B12C2081222339F0DC
:102B1000B39439968AE0C82EBC10F7CF8BC12FB77B
:102B2000F8946F5F7F4FCB01A0E0B0E08093B702D5
:102B30009093B802A093B902B093BA022FBF0E943B
:102B4000C405182F0E94C405EAE6F4E0DF011397DC
:102B50009C91992339F012969C91911303C0908116
:102B6000981769F0399624E0E43CF20779F739E0E8
:102B7000B39EF0011124E959FB4F128383830B2D7F
:102B800010E00E94AC026B017C010E94E202611520
:102B900071058105910569F0683542E0740781058A
:102BA000910538F4AAE0B0E09B01AC010E94291D18
:102BB000F3CF28E532E040E050E00E94F21C9B0198
:102BC0006115710511F421E030E089E0809FF0018A
:102BD000819FF00D1124E959FB4FA8EEB3E00E944C
:102BE0001A1D6C0D7D1D8E1D9F1D6483758386834C
:102BF00097831086A18281E08083809112028823CE
:102C000019F00E94D90103C08B2D0E940306809108
:102C100013028F5F8093130280911502992787FD1D
:102C20009095FC01EE0FFF1FE80FF91FE359FD4FD0
:102C30001181812F0E94D1028A3070F459E0859F62
:102C4000F0011124E959FB4F8081882329F052813A
:102C500043816481908504C090E06CE341E051E0E1
:102C6000809114028111E6C029E334E0232B09F49A
:102C7000E1C089E772C0C0900002D0900102E090EC
:102C80000202F09003020E94AC0220911502332749
:102C900027FD3095F901EE0FFF1FE20FF31FE359F7
:102CA000FD4F4181209114022111C4C029E334E079
:102CB000232B09F4BFC02AE7209339042DE0209389
:102CC0003A0440933B04A7019601261B370B480B9F
:102CD000590BCA01B90128EE33E040E050E00E94F0
:102CE000F21C20933D0410923C0411E010933E042A
:102CF00010933F04109240048FEF8093330480932D
:102D0000340487E08093380448E06DE274E081E0A9
:102D10000E94531081118EC0109314028BC0108139
:102D2000812F0E94D1028A3070F439E0839FF00134
:102D30001124E959FB4F8081882329F05281438176
:102D40006481908504C090E06CE341E051E029E3A8
:102D500034E0232B09F46EC08BE7809339048DE0B7
:102D600080933A0410933B0460933D0410923C041A
:102D700050933E0440933F04909340048FEF809320
:102D800033048093340487E08093380448E06DE294
:102D900074E081E00E94531081114CC081E0809367
:102DA000140248C0E8E6F4E020E0DF0111973C910E
:102DB000332349F03081A1E0B0E0AC0FBD1FA20F7A
:102DC000B11D3C932F5F3996A4E0E23CFA0769F706
:102DD000FA01E80FF91FE359FD4FAE014F5F5F4F56
:102DE00061818CE725C0DF0118973C91332389F07E
:102DF0003081332371F001E010E00C0F1D1F020F32
:102E0000111DBF0167507109DB013C91D8013C9352
:102E10002F5F3996B4E0E93CFB0729F7FA01E80F88
:102E2000F91FE359FD4FAE014F5F5F4F61818DE7A1
:102E30000E9485108091150218161CF40E9432021F
:102E400092C0109215028FC084E08093AA0283E0A2
:102E50008093AB02C0900002D0900102E090020289
:102E6000F09003020E94AC02A7019601261B370BCB
:102E7000480B590BCA01B90128EE33E040E050E09D
:102E80000E94F21C2093AD023093AC0284E090E0EB
:102E90000E94E205882309F466C085E162C0809142
:102EA0001202882309F45FC080912C040E9403065B
:102EB0005AC08091110230916903409164038111DD
:102EC00023C0EAE6F4E080E090E0DF0113972C9164
:102ED0002223A1F012962C91241310C020812313D9
:102EE0000DC029E0289FF001299FF00D1124E95918
:102EF000FB4F8085811108C020E007C001963996FC
:102F00008A30910511F7F8CF21E0809116028111E6
:102F100027C08AE292E0892B19F180E780932A0288
:102F20008DE080932B0240932C0230932D0220934E
:102F30002E028FEF809324028093250286E08093F7
:102F4000290245E06EE172E080E00E945310811199
:102F500007C081E08093160206C00E940E0803C0DD
:102F600088E10E940A022C960FB6F894DEBF0FBECD
:102F7000CDBFDF91CF911F910F91FF90EF90DF9028
:102F8000CF90BF90AF909F908F9008958FB7F89497
:102F900008958FBF08951F920F920FB60F921124BC
:102FA0000BB60F922F933F934F935F936F937F9343
:102FB0008F939F93AF93BF93EF93FF930E94010270
:102FC0002091B30030E02F5F3F4F809169029091D4
:102FD0006A02A0916B02B0916C02820F931FA11D37
:102FE000B11D8093690290936A02A0936B02B09323
:102FF0006C0278940E94E606FF91EF91BF91AF9129
:103000009F918F917F916F915F914F913F912F9100
:103010000F900BBE0F900FBE0F901F9018951F9230
:103020000F920FB60F9211240BB60F922F933F936E
:103030004F935F936F937F938F939F93AF93BF93C0
:10304000EF93FF930E940102FF91EF91BF91AF9127
:103050009F918F917F916F915F914F913F912F91B0
:103060000F900BBE0F900FBE0F901F9018951F92E0
:103070000F920FB60F9211240BB60F922F933F931E
:103080004F935F936F937F938F939F93AF93BF9370
:10309000EF93FF932EB580914F03909150030097CB
:1030A00039F0E0912F03F0913003E80FF91F2083EE
:1030B00080912F0390913003019690933003809379
:1030C0002F038CB58F778CBD80912F0390913003A7
:1030D00060914F02709150028617970708F03FC029
:1030E0002091270430912804E0914F03F091500380
:1030F000AC01465F5F4F6417750708F4AB014150A0
:10310000510984179507C8F42115310549F0D901F3
:10311000A80FB91F6C916EBD0DB407FEFDCF04C0A2
:103120001EBC0DB407FEFDCF6EB5309721F0DF0158
:10313000A80FB91F6C930196E4CF4CB540684CBD05
:103140002115310531F0F901E80FF91F20812EBD5D
:1031500001C01EBC9093300380932F0311C01092C6
:10316000500310924F0310922804109227041092DB
:10317000500210924F021092300310922F038EB51E
:10318000FF91EF91BF91AF919F918F917F916F913F
:103190005F914F913F912F910F900BBE0F900FBEFB
:1031A0000F901F90189578941F920F920FB60F9260
:1031B00011240BB60F922F933F934F935F936F930E
:1031C0007F938F939F93AF93BF93EF93FF938091E0
:1031D0006F008D7F80936F0078948FB7F8949091F3
:1031E0005103913019F492E0909351038FBF0E94E4
:1031F000B610FF91EF91BF91AF919F918F917F9109
:103200006F915F914F913F912F910F900BBE0F9057
:103210000FBE0F901F90189578941F920F920FB6C3
:103220000F9211240F900FBE0F901F901895789455
:103230001F920F920FB60F9211240F900FBE0F9096
:103240001F90189578941F920F920FB60F92112429
:103250000BB60F922F933F934F935F936F937F9390
:103260008F939F93AF93BF93EF93FF93E6E8F0E0C4
:1032700080819181808191812FB7F8949093C002D1
:103280008093BF0281E0809384032FBF0E94B61019
:10329000FF91EF91BF91AF919F918F917F916F912E
:1032A0005F914F913F912F910F900BBE0F900FBEEA
:1032B0000F901F90189578941F920F920FB60F924F
:1032C00011242F938F939F93AF93BF932FB7F894AD
:1032D0008091370390913803A0913903B0913A035C
:1032E0000196A11DB11D8093370390933803A093DD
:1032F0003903B0933A032FBFBF91AF919F918F9144
:103300002F910F900FBE0F901F9018951F920F9244
:103310000FB60F9211240BB60F922F933F934F933A
:103320005F936F937F938F939F93AF93BF93EF932D
:10333000FF938091C00087FF4AC06091C600209132
:103340003B0330913C032115310551F180912A0452
:1033500090912B04AC014F5F5F4F50932B0440932F
:103360002A04F901E80FF91F608320912A043091A3
:103370002B048091C2049091C3042817390738F1B7
:1033800010923C0310923B03809153038330F9F079
:103390008091C1008F778093C1001092530317C0B2
:1033A0006E3719F460E081E010C0809117026D372C
:1033B00021F48260809317020AC081FF05C08D7FCF
:1033C0008093170280E2682780E00E94EB03FF9160
:1033D000EF91BF91AF919F918F917F916F915F918D
:1033E0004F913F912F910F900BBE0F900FBE0F90FA
:1033F0001F90189578941F920F920FB60F92112478
:103400000BB60F922F933F934F935F936F937F93DE
:103410008F939F93AF93BF93CF93EF93FF9380913D
:10342000A8029091A9022091870330918803821706
:103430009307C8F4E091C302F091C4029C012F5F8E
:103440003F4F3093A9022093A802E80FF91F808113
:103450009FB7F8948093C6008091C00080648093E9
:10346000C0009FBF1EC01092C4021092C3021092EF
:10347000B4028091C1008F7B8093C100CFB7F894D4
:103480008091170280FF0AC08E7F8093170280917F
:10349000BC028093B6020E94D60402C00E941A05A4
:1034A000CFBFFF91EF91CF91BF91AF919F918F913E
:1034B0007F916F915F914F913F912F910F900BBE34
:1034C0000F900FBE0F901F9018951F920F920FB67E
:1034D0000F9211248F938091C80087FD8091CE00B8
:1034E0008F910F900FBE0F901F90189578941F9298
:1034F0000F920FB60F9211240F900FBE0F901F90D6
:10350000189578941F920F920FB60F9211240F9076
:103510000FBE0F901F90189578941F920F920FB6C0
:103520000F9211240F900FBE0F901F901895789452
:103530001F920F920FB60F9211240F900FBE0F9093
:103540001F90189578941F920F920FB60F92112426
:103550008F939F9380919600909197009F918F9168
:103560000F900FBE0F901F90189578941F920F9296
:103570000FB60F9211242F938F939F932FB7F89428
:103580008091BD029091BE0201969093BE028093FD
:10359000BD022FBF9F918F912F910F900FBE0F9063
:1035A0001F9018950FB7F89414BE88E10FB6F894E1
:1035B00080936000109260000FBE4AE150E06FEF10
:1035C00070E08CE792E00E94741D8FEF80938D0372
:1035D0008093630456985E9854985C9880916F002D
:1035E0008F7D80936F00209A0E94AE01279A0E94DF
:1035F000AC010E9A169A86EC92E090936202809348
:1036000061021092BB028AE58093A10281E080935F
:10361000810080E28093B60083E08093B1008091C6
:103620008400909185004AE72091840030918500C4
:103630002817390708F44150442311F0C901F4CF89
:103640008091B2009091B2009817E1F3209184002C
:10365000309185008091B2009091B2009817E1F30B
:1036600080918400909185004096821B930BC5E069
:1036700096958795CA95E1F790938F0380938E0373
:103680001092B100109281001092B6001092B20018
:1036900010928500109284008FEF87BB86BB8091CB
:1036A000B6008571E1F70A9A099A089A129A119A56
:1036B000109A18B88FEF87B90C981498109295004B
:1036C00010929400809171008160809371008091CC
:1036D0009100887F82608093910010928500109203
:1036E000840080916F00816080936F0080918100E1
:1036F000887F8260809381000E94ED01C82F8F3FF8
:1037000019F00E94F610F8CF12E0D6E060918E0317
:1037100070918F0380E090E0ECE0660F771F881FC8
:10372000991FEA95D1F7C12CF1EEDF2EE12CF12C97
:10373000A70196010E94F21C215031092093C40078
:103740003093C5001093C000D093C2001092C10006
:1037500060918E0370918F0380E090E0ACE0660F83
:10376000771F881F991FAA95D1F7A70196010E947C
:10377000F21C215031092093CC003093CD001093DE
:10378000C800D093CA001092C90084E490E09093DE
:1037900086038093850310925102109253028AE0AF
:1037A0008093650310925C0210921C021092C10279
:1037B00010922E0310922D031092C40410925B02FB
:1037C0000E94DB011092260310922503C093C202CF
:1037D0000E9450068091B60080628093B60080916E
:1037E000B60081FDFCCF82E08093B0008091B600EE
:1037F00080FDFCCF83E08093B1008091B60083FD13
:10380000FCCF86EE8093B30080917000826080933D
:1038100070000E94E60620910E0230910F02C9014D
:103820000196A0E0B0E08093B7029093B802A09315
:10383000B902B093BA028AE993E09093560280935A
:10384000550289EC93E0909358028093570288EFD9
:1038500093E090935A02809359022295207F2093FF
:103860001D028FEF8093A0028FEF9FEF9093C6040D
:103870008093C5049093C8048093C7049093CA04AE
:103880008093C9049093CC048093CB049093CE048E
:103890008093CD04EAE6F4E0CFE6D4E041E0BCE377
:1038A000CB2ED12CE12CF12C9F0123503109D901D1
:1038B0001C922F5F3F4FD9011C922F5F3F4FD901C0
:1038C0004C934083C182D282E382F482188239967B
:1038D0002996B4E0E43CFB0739F70E94ED018F3FE5
:1038E00019F00E94F610F9CF0FBF78940E94C7100C
:1038F000CFB7F8940E94ED018F3F09F04FC080913F
:103900007000837099F08091B6008A71E1F7809120
:10391000B3009091B200891B8C3010F492E007C084
:103920008091B200853FD0F793E001C095E080918F
:103930006E008670E9F480916F008E72C9F48091F8
:1039400071008E72A9F40CB407FC12C08091C10002
:10395000887171F48091C900887151F48091BC0024
:1039600082FD06C080917A0087FF04C0E1E003C0B9
:10397000E0E001C0E5E083B79E1708F4E92FF0E02E
:10398000E05FFE4FE491807F81608E2B83BF78944F
:103990008895F89483B78E7F83BFACCFCFBF0E944A
:1039A000F610A6CF991B79E004C0991F961708F06E
:1039B000961B881F7A95C9F780950895AA1BBB1B93
:1039C00051E107C0AA1FBB1FA617B70710F0A61B1F
:1039D000B70B881F991F5A95A9F780959095BC0140
:1039E000CD010895A1E21A2EAA1BBB1BFD010DC03B
:1039F000AA1FBB1FEE1FFF1FA217B307E407F5079F
:103A000020F0A21BB30BE40BF50B661F771F881F7A
:103A1000991F1A9469F760957095809590959B0110
:103A2000AC01BD01CF010895EE0FFF1F0590F49189
:103A3000E02D0994A29FB001B39FC001A39F700D18
:103A4000811D1124911DB29F700D811D1124911DA6
:103A500008950E941A1DA59F900DB49F900DA49FDC
:103A6000800D911D112408950F93083090F0982F28
:103A7000872F762F652F542F432F322F2227085060
:103A8000F4CF220F331F441F551F661F771F881F57
:103A9000991F0A95B2F70F91089597FB10F81694A5
:103AA00000080F93083098F00850232F342F452F2B
:103AB000562F672F782F892F902DF4CF0594979547
:103AC00087957795679557954795379527950A95E3
:103AD000AAF70F9108952A193B094C095D096E094F
:103AE0007F09800B910B0895DC0101C06D9341505B
:0A3AF0005040E0F70895F894FFCF6E
:103AFA003C00000002FFFFFFFFFFFF220100010060
:00000001FF
